S015000062745F736F635F737769746368792E733337FB
S31508012000C00A0020AD2F0108F9160308F9160308BE
S315080120102F2D0308F9160308F9160308F9160308FC
S31508012020F9160308F9160308F9160308F916030839
S31508012030F916030860D103086B150308F916030896
S31508012040F9160308F9160308F9160308F916030819
S31508012050F9160308F9160308F9160308F916030809
S31508012060F9160308F9160308F9160308492C010895
S3150801207057160308F9160308F9160308F91603088B
S31508012080F9160308F9160308F9160308F9160308D9
S31508012090F9160308E9370108F9160308F9160308BA
S315080120A0F91603086539010841390108F9160308C3
S315080120B0F9160308EDF70208D101030821C603083A
S315080120C01DC60308B9F902082DC6030825C6030863
S315080120D0A901030829C603081102030875020308A2
S315080120E0F9160308F9160308F9160308F916030879
S315080120F0772A0308F9160308F9160308F9160308D7
S31508012100F9160308F9160308F9160308F916030858
S31508012110F9160308F9160308F9160308F916030848
S31508012120F9160308F9160308F9160308F916030838
S31508012130F9160308F9160308F9160308F916030828
S31508012140F9160308F9160308F9160308352E0308C4
S315080121509DE00208F916030853C3030859C3030887
S31508012160F9160308F9160308F9160308F9160308F8
S31508012170013800D0FCE7704770B505463E4C8AB079
S3150801218020B10023008823600CF006FE3B4829F0A5
S3150801219013FE3B4E3B4B304633603B4B736024F09A
S315080121A024FE0021304617F0B1F931A3D3E9002303
S315080121B0A062C4E9062324F020FED4E906231943C4
S315080121C010434FF0FF33C4E90601CDE900014FF092
S315080121D0FF32A06A29F037FE02224FF0FF31A06ACA
S315080121E029F036FE01200CF097FB4FF4007300220C
S315080121F02649A06A29F082FEB0F5007F36D1002370
S315080122009422CDE9073309933C23CDE9033205939B
S315080122109623A06A03A9069317F0C6FA25B3287C64
S315080122200DF012F80546E0B9A06A29F048FF0CF04E
S31508012230B3FF0CF053FB20B14FF4807000210AF074
S3150801224057FA0CF05BFB20B14FF4006000210AF04D
S315080122504FFA012017F0AEF90D4A0E49A06A24F08B
S31508012260C2FD28460AB070BDFF20D9E70725F8E761
S3150801227009D5015520000000380F0020690345ECF7
S3150801228078240020F1EF01086C2400206C2200203C
S315080122908F6D0308CF6D030810B5054C237833B944
S315080122A0044B13B1044800E000BF0123237010BD9D
S315080122B090110020000000006427040808B5034BAC
S315080122C01BB10349034800E000BF08BD0000000038
S315080122D09411002064270408A3F5803A704700BFCB
S315080122E0174B002B08BF134B9D46FFF7F5FF00213F
S315080122F08B460F461348144A121A2AF0E4F90E4B74
S31508012300002B00D098470D4B002B00D09847002092
S31508012310002104000D000D48002802D00C4800E0F9
S3150801232000BF1EF0CBF9200029001FF012F91EF09C
S31508012330B1F900BF0000080000000000000000001D
S31508012340C00A0020CC0E0020402B0020000000000F
S315080123500000000008B5134A134813780133DBB2AD
S315080123601370124A1278013A052A17D8DFE802F0E3
S315080123700D0D0D0A16031FF00DFABDE808400C48AD
S315080123801FF005BA1FF003FAF7E7DB07FAD51FF0C6
S3150801239001FABDE8084006481FF0FCB91FF0F7F935
S315080123A0F7E700BF0E2A002060D003080D2A002097
S315080123B078D0030837B51B4D1B4C28701FF089F9D7
S315080123C01FF088F92B78194AC3EB031313441849EC
S315080123D00022206820F09FFB2B78062B19D10122B9
S315080123E00DF107038DF8072012491348098800786B
S315080123F00FF09CFD05461FF06CF91FF06BF99DF86F
S3150801240007300E492068AAB220F085FB002003B0E8
S3150801241030BD052BFAD1002301228DF807300DF1C5
S315080124200703E1E70D2A00206C120020A4290020E9
S31508012430F0C9030854290020F60C00200ECA030827
S3150801244013B51F4C1FF045F91FF044F91D492068C3
S3150801245020F061FB1FF03DF91FF03CF920681A4C8A
S315080124601A4920F058FB204619492AF054F9194906
S3150801247004F10F002AF04FF9174904F11E002AF05A
S315080124804AF9164904F12D002AF045F9144904F1CF
S315080124903C002AF040F9134904F14B002AF03BF9B4
S315080124A0114904F15A002AF036F900236421CDE9CD
S315080124B000330E4A0E4806F0E1F902B010BD00BF1E
S315080124C06C12002046CA0308A429002060CA030822
S315080124D06CCA030871CA030876CA03087ECA0308C8
S315080124E08DCA030897CA03089BCA0308552301081E
S315080124F0B01100202DE9F0470368AF4A23F47F4362
S3150801250023F00703934204468AB000F042810FD8AC
S31508012510AA4A934200F09D8002F58032934200F068
S315080125209F80A2F5A022934227D00AB0BDE8F08782
S31508012530A34A934200F0AE8002F18062934200F012
S31508012540C58002F17B429342EFD1427A102AECD13F
S3150801255000F10A019B482AF07FF80028E5D11FF00F
S31508012560B8F81FF0B7F8984B9849186820F0D3FACD
S31508012570D4F80520964B1A60D7E7934D1FF0A9F8B2
S315080125801FF0A8F89349286820F0C5FA0120FFF73B
S3150801259011FF012108460FF019FD04461FF099F8AD
S315080125A01FF098F88C49A2B251E004EB0A03DD7DCD
S315080125B01B7E083B012B15D86E1E0AF11501324602
S315080125C0494402A82AF058F805F127030DEB03063A
S315080125D00023404606F8203C02A92AF092F8002872
S315080125E008BF0127013555445FFA85FAA37D013BEA
S315080125F09A45DADB002F98D0734D1FF06AF81FF061
S3150801260069F87649286820F086FA754B0093617A4D
S31508012610A67AE27A41EA06210123D4F805000FF0E9
S3150801262019FC04461FF055F81FF054F86D4928683F
S31508012630A2B220F070FA002C7FF477AF0FF0BAFC43
S3150801264004461FF046F81FF045F86749A2B2286804
S3150801265077E00027DFF8BC81BA4600F10409C5E72F
S31508012660594D1FF036F81FF035F86049286820F0F3
S3150801267052FA0220FFF79EFE594B1021514A18784B
S315080126800FF028FC04461FF024F81FF023F85849D8
S31508012690A2B2DCE7027A102A7FF447AF00F10901FA
S315080126A0544829F0D9FF00287FF43FAF1FF011F8ED
S315080126B01FF010F8444B5049186820F02CFAA279FB
S315080126C0637943EA02234D4A13802EE74C4B1B7864
S315080126D0062B3FF62AAF042B4FD8022B15D0032B16
S315080126E07FF423AF384D1EF0F4FF1EF0F3FF454982
S315080126F0286820F010FA414B1B88002B31D00420A2
S315080127000AB0BDE8F047FFF755BE2F4C304E1EF014
S31508012710E0FF1EF0DFFF3B49206820F0FCF9336833
S315080127202F4D9BB10320FFF745FE316828780FF03E
S31508012730E7FB05461EF0CDFF1EF0CCFF3249AAB2D3
S3150801274020680AB0BDE8F04720F0E5B928780FF00F
S31508012750AFFB05461EF0BDFF1EF0BCFF2B49AAB212
S31508012760EEE71F4B18780FF0A3FB04461EF0B1FFE6
S315080127701EF0B0FF2549A2B269E71EF0AAFF1EF0B6
S31508012780A9FF114B1F4918680AB0BDE8F04720F0A8
S31508012790C2B90D4D1EF09DFF1EF09CFF1C4928680D
S315080127A020F0B9F9FF220E4B1A700023084A13606C
S315080127B0124A1380EAE600BFA0000601A000050040
S315080127C0A000090233CD03086C120020EBCB0308E5
S315080127D0AC1100209ECA0308C8CA0308F9CA03082F
S315080127E0F60C00203BCB03085FCB030880CB03081C
S315080127F0B0CB030823CD030816CC030854290020BF
S315080128000D2A002048CC03087FCC0308B1CC030865
S31508012810D6CC0308EACA0308062808D8431F012BA1
S3150801282003D8044B1B78032B01D9FFF7C3BD01203D
S31508012830704700BF0D2A002038B504461EF07BFFFD
S31508012840114B05469C4219D0104A944214BFFF24E5
S3150801285001241EF03EFF1EF03DFF0D482B46224681
S315080128600C49006820F057F9012D0BD1FF2C09D02E
S3150801287034B90520BDE83840FFF7CEBF0024E8E7A4
S315080128800620F7E738BD00BF30D0030848D0030853
S315080128906C12002006CD030830B503687F4A23F47D
S315080128A07F4323F00703934289B040F0F48008225E
S315080128B0002112207A4B0FF04FFB044610B3794DD5
S315080128C07949286820F027F97849286820F023F9FA
S315080128D01EF0FFFE1EF0FEFE754B764A0093764902
S315080128E03D23286820F017F974492346744A286855
S315080128F020F011F9204600F09BFA7249286820F069
S315080129000AF9FEE70146032214206F4B0FF024FB58
S31508012910044610B3634D6449286820F0FCF86349FE
S31508012920286820F0F8F81EF0D4FE1EF0D3FE604B9E
S31508012930604A009360494B23286820F0ECF85F4908
S3150801294023465F4A286820F0E6F8204600F070FA28
S315080129505C49286820F0DFF8FEE7014605221620C3
S315080129605A4B0FF0F9FA054610B34E4C4E492068FA
S3150801297020F0D1F84D49206820F0CDF81EF0A9FEC7
S315080129801EF0A8FE4A4B4B4A00934B49592320682F
S3150801299020F0C1F849492B46494A206820F0BBF87E
S315080129A0284600F045FA4749206820F0B4F8FEE7C2
S315080129B00DF10F0104A80FF01DFB044610B3394DA4
S315080129C03949286820F0A7F83849286820F0A3F87B
S315080129D01EF07FFE1EF07EFE354B364A00933649C1
S315080129E06423286820F097F834492346344A28682E
S315080129F020F091F8204600F01BFA3249286820F0A9
S31508012A008AF8FEE79DF8153001468DF818309DF8CD
S31508012A10143008228DF819309DF8133018208DF8D6
S31508012A201A30FF238DF81B30FE238DF81C309DF8D4
S31508012A3012308DF81D309DF811308DF81E309DF835
S31508012A4010308DF81F3006AB0FF086FA054610B325
S31508012A50144C1549206820F05EF81449206820F0C6
S31508012A605AF81EF036FE1EF035FE114B114A009338
S31508012A7011497423206820F04EF810492B46104A54
S31508012A80206820F048F8284600F0D2F90D49206858
S31508012A9020F041F8FEE709B030BD00BFA0000100F3
S31508012AA043CD03086C120020E9CB03084CCD03087B
S31508012AB0B8CD030851CD030879CD030888CD03089D
S31508012AC085CD03089DCD0308AECD0308B2CD030815
S31508012AD010B5274C01F07CFC01F098FE236F23F01A
S31508012AE0070343F0030323671EF0CAFE214B0020A8
S31508012AF09B6ADB015EBF4FF480321F4B9A62D4F8A2
S31508012B00203123F0070343F00203C4F82031D4F837
S31508012B10283123F0070343F00203C4F82831D4F817
S31508012B20403123F0030343F00203C4F84031D4F8DB
S31508012B30603123F0030343F00203C4F86031D4F88B
S31508012B40403223F0030343F00203C4F84032D4F8B9
S31508012B50003223F0070343F00203C4F80032D4F825
S31508012B60083223F0070343F00203C4F8083210BD04
S31508012B70008000500040005A0060005A30B51D4DD3
S31508012B809DB008AC0FCD0FC495E80F0084E80F007F
S31508012B902C22002111A829F096FD174B102210931B
S31508012BA05623129305230124159306230DEB0200E0
S31508012BB0002117938DF8454029F085FD4FF47020C3
S31508012BC00E4B08AACDE902030B238DF810300C230E
S31508012BD08DF811300A4B02A9059320230693094B58
S31508012BE00948009310AB8DF81D4004F027FC1DB071
S31508012BF030BD00BF10D003080000015B3C00015B3B
S31508012C000F2A0020D011002048120020022907D8D7
S31508012C10044B1B68186818B1034B01215B6A1847F6
S31508012C20704700BFC80A0020D011002008B5044922
S31508012C30044805F0CBF9BDE80840FFF79FBF00BF80
S31508012C40C00A00204012002001481FF0A2BF00BFA1
S31508012C5048120020014B1A6A1868104748120020CA
S31508012C6008B504481EF062FDBDE8084002481EF09A
S31508012C705DBD00BF30D0030848D0030808B5044835
S31508012C801EF082FDBDE8084002481EF07DBD00BF6A
S31508012C9060D0030878D003087FB500240368464A44
S31508012CA023F47F4323F00703934205468DF8084032
S31508012CB08DF809408DF80A408DF80B408DF80C40C7
S31508012CC08DF80D406DD002F18272934271D1B0F840
S31508012CD005301B2B6DD1FF2304A91A4611E9030000
S31508012CE01EF0F0FC012814BF41F2FC14334B4FF0DF
S31508012CF01B0108BF187004F0FC0228790FF042F98D
S31508012D00064610B32E4C2F4920681FF004FF2E49A2
S31508012D1020681FF000FF1EF0DCFC1EF0DBFC2B4BCD
S31508012D202B4A00932B494E2320681FF0F4FE2A49AB
S31508012D3033462A4A20681FF0EEFE304600F078F83E
S31508012D40274920681FF0E7FEFEE71C4B1B78002B7E
S31508012D502FD028790FF0ACF8054650B3184C19490D
S31508012D6020681FF0D8FE184920681FF0D4FE1EF00F
S31508012D70B0FC1EF0AFFC154B154A009315495423B8
S31508012D8020681FF0C8FE14492B46144A20681FF014
S31508012D90C2FE284600F04CF8114920681FF0BBFE18
S31508012DA0FEE7064B1B7823B104B0BDE8704020F05E
S31508012DB079B804B070BD00BFA00006012F2A002013
S31508012DC06C120020E9CB03084CCD030803D1030894
S31508012DD090D0030879CD030888CD030885CD03086B
S31508012DE09DCD0308012208B5074B1A700022074B2F
S31508012DF01A700422064B1A701F22064B1A7004F029
S31508012E00B5FA054B186008BDFD0C0020302A0020D4
S31508012E10FE0C0020FF0C00206C120020024B034917
S31508012E2018681FF078BE00BF6C12002023D1030872
S31508012E3070B50C4C0C49064620681FF06CFE04F070
S31508012E4095FA0546206804F085FA3046FFF7E6FF4D
S31508012E50284604F07FFA20680449BDE870401FF04F
S31508012E605ABE00BF6C12002025D1030827D10308DA
S31508012E702DE9F041484C8EB0264601AD0FCE0FC55F
S31508012E80336814342B6006AD0FCC0FC594E80F00D8
S31508012E9085E80F0001213A2001F056F80121572053
S31508012EA001F052F84FF480733C4EADF81C303C4BA0
S31508012EB03046039301A906AB059302F01BF80123DB
S31508012EC004220321022002F025F9022100230846E3
S31508012ED0012202F01FF9012304221946022002F0F9
S31508012EE019F9042200210123022002F013F92D4CBD
S31508012EF02D4B0125C4F8C8344FF00213C4F8C43465
S31508012F0003F58033C4F8CC341C2304F50058C4F8FF
S31508012F10B4344FF4487005F057FE04F58057142071
S31508012F20C8F8A05005F050FE2320C7F8A05005F0B8
S31508012F304BFEB9213046C8F8A0501EF010FD0023FB
S31508012F4003211A460220C7F8A05002F0E3F800232D
S31508012F5002211A46084602F0DDF82B4629460022C8
S31508012F60022002F0D7F800222B461146022002F071
S31508012F70D1F8304601F0F0FD00215720C4F8C814F5
S31508012F80C4F8C414C4F8CC14C4F8B41400F0DCFFB3
S31508012F900EB0BDE8F08100BF2CD1030800000A502D
S31508012FA0E070720000C003500200010008B500F08D
S31508012FB02DF8124B12498B4212D30020114B12499C
S31508012FC08B4218D3FFF78CF9186850F822405868D5
S31508012FD040F82240013298688242F5D30C33EAE779
S31508012FE00022F8E71C6844F8220001325C68A24214
S31508012FF0F8D30833E4E70022F8E700BF6C27040892
S315080130007827040878270408782704084FF48041AC
S315080130104FF0FF30114B124A10B59A60D3F8882049
S3150801302042F47002C3F888200E4A91660E4901F5EA
S31508013030005210660D4850660220C3F8D000BFF34F
S315080130404F8FBFF36F8F01244FF440330848C0F800
S315080130508041D36004600B6110BD00BF00ED00E044
S31508013060002001080090005000800044F7FF370057
S3150801307000E100E0014B1868704700BFD00A002044
S31508013080084B1B6F03F00703022B04D0032B05D053
S31508013090012B05D0FEE7044B18687047034BFBE785
S315080130A00348704700800050D00A0020D40A002047
S315080130B0002D310108B5FFF7E3FF054B1B6FC3F37D
S315080130C003330133B0FBF3F0024B186008BD00BFB0
S315080130D000800050CC0A00200048704700B4C404A0
S315080130E0014B1868704700BFD40A0020054B1860C9
S315080130F0054B1B6F03F00703032B01D1FFF7DABF5B
S31508013100704700BFD40A002000800050004870476D
S31508013110002D31014FF0B4439868C0F304400C28E0
S3150801312022D8DFE800F009212121212107171921D9
S315080131301B1D1F000F4870479B6803F04073B3F1CE
S31508013140807F13D0B3F1007F12D00B4A002B08BF42
S31508013150104670470948704709487047094870473B
S315080131600948704709487047002070470848704762
S3150801317008487047405DC60000093D000024F40078
S31508013180C0EA210180BA8C010048E801005A6202AE
S3150801319080841E0040420F00014B1868704700BF2B
S315080131A0D80A00204FF000639B6A10B503F17842F4
S315080131B0B2F5903F0ED21968094A91420AD1094CD3
S315080131C0227812F0FD0F08D1DB69984708B9012367
S315080131D0237010BD4FF48170FBE70020F9E700BFAB
S315080131E007B0CD5E312A00204FF00053074A1A6016
S315080131F0BFF34F8F0649074BCA6802F4E0621343CF
S31508013200CB60BFF34F8F00BFFDE700BF02020FF08F
S3150801321000ED00E00400FA0505490A681318054897
S3150801322083428CBF4FF0FF320B601046704700BFD8
S31508013230DC0A00200000042010B40A681378022B67
S3150801324011D014203023147913FB040307481B58A3
S315080132505079C340DB4303F00103137008465DF858
S31508013260044BFFF7E9BA5DF8044B704730C00350C9
S3150801327037B50468012105463A2000F065FE0023AA
S3150801328001226179207901F045FF14223023217941
S3150801329013FB01230E4A9B586279D340DB4303F0A3
S315080132A001032370A379022B0ED100F0F3FA2A4603
S315080132B00849607900F018FB0123024661792079F3
S315080132C0CDE9003301F0CEFE002003B030BD00BFCA
S315080132D030C003503932010802681378022B24D012
S315080132E014213023107913FB001310495B585179C7
S315080132F0CB40917903F00103012912D1508843EAA1
S3150801330040034FF6E07063F03F039BB2834202D15C
S315080133101170538070474FF6DF718B42F9D1002146
S31508013320F6E711B983F001031370704730C00350F3
S3150801333010B5012243780178847830209A40054BEC
S3150801334000FB01331CB903F501531A6010BD03F5DF
S315080133508253FAE700C0035010B501224378017879
S31508013360847830209A40054B00FB01331CB903F5DC
S3150801337082531A6010BD03F50153FAE700C00350E2
S315080133800122437801789A4030235943014B5A5018
S31508013390704700BF40F003501021302302460078E1
S315080133A013FB0013054950785B58C34003F001002D
S315080133B093780BB980F00100704700BF30C0035005
S315080133C02DE9F04F9A46564B85B01B7806460F46AF
S315080133D01546DDF83C909DF844B0DDF85080002B89
S315080133E000F08D80072A00F28C800E9B002B00F0DE
S315080133F08880B9F1000F00F08480129BB3F5006F45
S315080134007FDC012802D1109B002B7AD0454B03EBB8
S3150801341005131B7B002B76D0434C102200216846EE
S3150801342029F051F904EB45141022002F59D13946D8
S31508013430204629F048F943F210036380BBF1000FD7
S3150801344003D1E37843F00303E370374A0E9B02EB9B
S31508013450451CCCE90193129B6901013BC3F30A00A0
S315080134609DF84C30012E03F003034FEA836343EAC8
S31508013470001E53582D48CDF800A000EA03004EEA75
S315080134800003535041D113230CF1100ECCF80C3024
S315080134909CE80F008EE80F006FF00301DCF81C2092
S315080134A0109B61F39F02012FCCF81C20CCF8143035
S315080134B003D1CCF81890CCF804300027194A290111
S315080134C002EB051342F80180159A28465A606946A7
S315080134D022469F605E7301F0BBFE384605B0BDE823
S315080134E0F08F0021204629F0EEF84FF444736380EB
S315080134F0BBF1000FA9D1E37843F03003A4E70C48E8
S31508013500ECE70C48EAE70C48E8E7B8F1000FD4D134
S315080135109CF8023068F304138CF80230CDE700BF3B
S31508013520322A002070120020F01200200F80FFF3CB
S31508013530028000F0018000F0078000F038B5124BD8
S3150801354005461B78DBB1E0B11EF0B6F90F4A002338
S315080135501146147B54B92B6001251A0101EB03139B
S315080135601D738C501EF0AEF9204638BD0133082B69
S3150801357002F11002EDD11EF0A5F90548F5E7054857
S31508013580F3E70548F1E700BF322A00207012002050
S31508013590048000F0028000F0018000F013B51EF0EF
S315080135A08BF900230B4A147B7CB90133082B02F1F2
S315080135B01002F8D1019001F0EDFD074B01981C703E
S315080135C01EF080F9204602B010BD1EF07BF90348B3
S315080135D0F9E700BF70120020322A0020058000F0AA
S315080135E00D4B10B51B78044693B1072812D81EF067
S315080135F063F90A4B03EB04131A7B2AB100241C73E3
S315080136001EF060F9204610BD1EF05CF90448FAE781
S315080136100448F8E70448F6E7322A00207012002029
S31508013620068000F0028000F0018000F0154B13B50A
S315080136301868002301908DF804301EF03DF9124BED
S315080136401C7824B11EF03EF9104802B010BD0122C3
S315080136501A701EF037F90E4B01A81C731C7783F8F4
S315080136602C4083F83C4083F84C4083F85C4083F84F
S315080136706C4083F87C4008238DF8073001F0B6FDCD
S315080136802046E2E7B0D10308322A0020038000F081
S31508013690701200200A4A08B512785AB107280BD8C1
S315080136A0084A02EB00131B7B43B1002101F090FD90
S315080136B0002008BD0448FCE70448FAE70448F8E78F
S315080136C0322A002070120020028000F0018000F0EA
S315080136D0078000F00A4A08B512785AB107280BD8AC
S315080136E0084A02EB00131B7B43B1012101F070FD6F
S315080136F0002008BD0448FCE70448FAE70448F8E74F
S31508013700322A002070120020028000F0018000F0A9
S31508013710078000F00A4A08B5127852B107280AD874
S31508013720084A02EB00131B7B3BB101F0DFFD0020C9
S3150801373008BD0548FCE70548FAE70548F8E700BF6C
S31508013740322A002070120020028000F0018000F069
S31508013750078000F00D4B1B7893B1072812D889B161
S315080137600B4B03EB00131B7B73B10A4B1A6D012339
S3150801377003FA00F010401ABF00200B70087070475A
S31508013780054870470548704705487047322A0020A2
S315080137907012002000000450028000F0018000F041
S315080137A0078000F00B4A10B512780C4662B107285B
S315080137B00CD859B1084A02EB00131B7B43B101F03F
S315080137C0A7FD2070002010BD0448FCE70448FAE76D
S315080137D00448F8E7322A002070120020028000F01F
S315080137E0018000F0078000F02DE9F843174B1F6DA3
S315080137F05B6D1F4000D5FEE701260025144CDFF856
S315080138005480DFF85490374217D02368C8F85060BF
S315080138109BB1A168284601316268A1609847637B1C
S31508013820012B0AD148B909EB45131A7B60F341020A
S315080138301A731A7F60F341021A770135082D4FEA88
S31508013840460604F11004DED1BDE8F88300000450F1
S315080138507012002000200450F012002070B50446B2
S3150801386001250B4E04B970BD94FAA4F0B0FA80F0A4
S3150801387005FA00F306EB001224EA03045368002B49
S31508013880F0D0117B11B191689847EBE79847E9E7C2
S31508013890F013002008B5192000F0DAFF28B14FF01F
S315080138A00072074BC3F880211A601A2000F0D0FF76
S315080138B028B14FF08062024BC3F880211A6008BD17
S315080138C000E100E038B505460C461DF0F5FF00227B
S315080138D0044B03EB05135C601A73BDE838401DF011
S315080138E0F1BF00BFF0130020F8B505460F4616468E
S315080138F01DF0E2FF104B05F0FC02D3F82414002357
S31508013900EC1804F00304144321FA04FC1CF0010F1B
S3150801391007D00133042BF3D1FF241DF0D3FF204632
S31508013920F8BDFF2CF9D00122044B03EB0413C3E9BC
S3150801393001761A73F1E700BF00C00350F0130020A7
S31508013940074BD3F82404D3F8202403F50053104079
S3150801395000F0553020F05020C3F82004FFF77EBF51
S3150801396000C00350074BD3F82404D3F8202403F5E9
S315080139700053104000F0AA3020F0A020C3F820041C
S31508013980FFF76CBF00C00350024B1968024B186859
S3150801399015F0D0B9E40A0020E00A002037B59200F4
S315080139A004460D46019229F01BF8431C0BD060B959
S315080139B029462046019A28F04FFE0028044808BFE8
S315080139C0002003B030BD0348FBE70348F9E700BF11
S315080139D010E000F021E000F024E000F013B5044601
S315080139E001A801F0CFFC9DF80630012223804FF48F
S315080139F0807300206380054B9B680A3303F01F031D
S31508013A0002FA03F3636002B010BD00BF0080E00F45
S31508013A1010B5044628F0DCFF431C15D0B0B90C4B91
S31508013A2020469B680A3303F01F020123934023F0C3
S31508013A3003032344984201D1002010BD50F8042BFA
S31508013A400132F7D00348F8E70348F6E70348F4E7F5
S31508013A500080E00F0EE000F021E000F024E000F025
S31508013A6008B51DF022FF014B186008BD301C002067
S31508013A70014B18681DF01DBF301C0020044BD3F8FC
S31508013A808420D206FBD4D3F88400C0F38110704792
S31508013A900040005038B5104B0546D3F880300C4627
S31508013AA003F00303022B0BD0032B0DD0012B0FD1EF
S31508013AB0FFF7E6FA0E2305B1286004B1236038BD85
S31508013AC0FFF728FB0723F6E7FFF7D4FA0623F2E701
S31508013AD000231846EFE700BF0080005038B5174BA2
S31508013AE00546D3F820310C4603F00703013B052BA5
S31508013AF020D8DFE803F0030B130F171BFFF7BAFAF9
S31508013B00052305B1286004B1236038BDFFF7E8FA3B
S31508013B100323F6E7FFF7FEFA0723F2E7FFF7F6FABC
S31508013B200223EEE7FFF7A6FA0623EAE7FFF7D8FA34
S31508013B300423E6E700231846E3E700BF00800050A8
S31508013B4038B5174B0546D3F828310C4603F0070359
S31508013B50013B052B20D8DFE803F003131B0F0B17D6
S31508013B60FFF788FA052305B1286004B1236038BD3B
S31508013B70FFF780FA0623F6E7FFF7CCFA0723F2E701
S31508013B80FFF7AEFA0323EEE7FFF7AAFA0423EAE7FB
S31508013B90FFF7BCFA0223E6E700231846E3E700BF6E
S31508013BA00080005073B50D460021114B0191D3F8E1
S31508013BB08041064604F00304022C13D0032C0CD0D2
S31508013BC0012C13D101A8FFF789FF10240EB1019B1F
S31508013BD0336005B12C6002B070BDFFF79BFA07246C
S31508013BE00190F3E7FFF792FA0190EFE70C46EDE74C
S31508013BF000800050002337B50193154B0546D3F8CD
S31508013C0020320C4603F00703013B032B1ED8DFE8DD
S31508013C1003F0020E1318002101A8FFF791FF1223E2
S31508013C200DB1019A2A6004B1236003B030BDFFF7D4
S31508013C3071FA07230190F3E71DF061FD0A2301904C
S31508013C40EEE7FFF7A9FA09230190E9E70023E7E779
S31508013C500080005038B5104B0546D3F840310C4664
S31508013C6003F00303022B0BD0032B0DD0012B0FD12D
S31508013C701DF045FD0A2305B1286004B1236038BD4E
S31508013C80FFF78AFA0923F6E71DF03CFD0C23F2E754
S31508013C9000231846EFE700BF00800050002337B520
S31508013CA00193164B0546D3F860320C4603F0070319
S31508013CB0013B032B1FD8DFE803F0020E191400217C
S31508013CC001A8FFF70BFF10230DB1019A2A6004B171
S31508013CD0236003B030BD002101A8FFF7BBFF112304
S31508013CE0F2E7FFF717FA07230190EDE7FFF70EFA58
S31508013CF002230190E8E70023E6E700BF00800050B1
S31508013D00002337B50193164B0546D3F894320C4672
S31508013D1003F00703013B032B1FD8DFE803F0020E6C
S31508013D201914002101A8FFF7D9FE10230DB1019A34
S31508013D302A6004B1236003B030BD002101A8FFF752
S31508013D4089FF1123F2E7FFF7E5F907230190EDE76C
S31508013D50FFF7DCF902230190E8E70023E6E700BF55
S31508013D600080005038B5134B0546D3F800320C468F
S31508013D7003F00703013B032B18D8DFE803F0020A17
S31508013D800E121DF0BCFC0A2305B1286004B123609C
S31508013D9038BDFFF701FA0923F6E71DF0B3FC0C233A
S31508013DA0F2E7FFF787F90F23800AEDE700231846A4
S31508013DB0EAE700BF0080005038B5134B0546D3F833
S31508013DC008320C4603F00703013B032B18D8DFE83A
S31508013DD003F0020A0E121DF092FC0A2305B12860AF
S31508013DE004B1236038BDFFF7D7F90923F6E71DF0BB
S31508013DF089FC0C23F2E7FFF75DF90F23800AEDE74B
S31508013E0000231846EAE700BF0080005038B5104B7A
S31508013E100546D3F840320C4603F00303022B0BD0B8
S31508013E20032B0DD0012B0FD11DF069FC0A2305B117
S31508013E30286004B1236038BDFFF7AEF90923F6E718
S31508013E401DF060FC0C23F2E700231846EFE700BFDC
S31508013E500080005038B5104B0546D3F860310C4642
S31508013E6003F00303022B0BD0032B0DD0012B0FD12B
S31508013E701DF045FC0A2305B1286004B1236038BD4D
S31508013E80FFF78AF90923F6E71DF03CFC0C23F2E754
S31508013E9000231846EFE700BF00800050B0F5207FE9
S31508013EA01FD009D8B0F5007F15D003D868B1B0F591
S31508013EB0C07F0AD000200CE0B0F5607FFAD10B4B29
S31508013EC0D3F88000C0F3011003E0084B186FC0F364
S31508013ED0033001307047054BD3F89000C0F30460F6
S31508013EE0F7E7024B186FC0F38020F2E70080005015
S31508013EF002464FF48030104B10B598660020FFF744
S31508013F00CDFF504341F671320C4BDC69DA635A68CE
S31508013F1004F4803422F4401259B9094988428CBF05
S31508013F204FF480100020104358600CB10022DA6368
S31508013F3010BD0449F2E700BF00900050000003508D
S31508013F40005A6202002D3101430905D0012B0DD01B
S31508013F50022B094B18BF002300F01F0041B103F5DE
S31508013F608053012202FA00F018607047034BF3E709
S31508013F7003F50053F5E700BF6880005064800050E0
S31508013F801FB5002180280446CDE9001100F0A5805F
S31508013F9035D85E2846D85E2844D8DFE800F0A24323
S31508013FA043434343434343434343434343434343D2
S31508013FB04343434343434343434343434343A2AAFC
S31508013FC0A2AAB9B9B9B9B9AAC34DD9714DAAAAAAAA
S31508013FD04343434343434343AAAAAA79E3AA434330
S31508013FE04343434343434343434343B9A2A2A2DE64
S31508013FF04D4DE8885EBE434343434399A200B0F55D
S31508014000B06F00F08F802DD8B0F5207F71D00CD815
S31508014010B0F5C07F65D0B0F5007F65D0B0F5807F7B
S3150801402000F08580009804B010BDB0F5607F6AD0B5
S315080140300DD8B0F5407FF5D1FFF73CF802464FF4AD
S315080140402070FFF72BFFB2FBF0F0400847E0B0F510
S31508014050806F5DD0B0F5A06FE4D100216846FFF707
S31508014060C9FDDFE7B0F5106F77D016D8B0F5E06F68
S3150801407078D00AD8B0F5C06F6AD0B0F5D06FD1D173
S3150801408000216846FFF76EFECCE7B0F5F06FC9D19F
S3150801409000216846FFF7DEFEC4E7B0F5406F3CD065
S315080140A013D8B0F5206F62D0B0F5286FBAD10021C8
S315080140B0314B0391D3F8703203F00303012B02D17C
S315080140C003A8FFF7C7FD039B3BE0B0F5486FA9D1ED
S315080140D000216846FFF714FEA4E7FEF7D1FF00901A
S315080140E0A0E7FEF7E7FFFAE7FEF7CAFF0246204612
S315080140F004E0FEF7DFFF02464FF42070FFF7CEFE1D
S31508014100B2FBF0F0EBE701A8FFF7C4FC019AEEE772
S3150801411000216846FFF7E2FC84E700216846FFF7BD
S315080141200FFD7FE700216846FFF73CFD7AE74FF070
S31508014130E02302911B695B0705D5FEF7BBFF0290D9
S31508014140029B00936EE703A902A8FFF783FDF7E731
S3150801415000216846FFF77EFD64E700216846FFF700
S315080141602BFE5FE700216846FFF750FE5AE700215C
S315080141706846FFF793FD55E70080005008B5802093
S31508014180FFF7FEFE034B98429EBF4FF48032024B67
S315080141901A6708BD005A620200A000501FB5002325
S315080141A0B0F5807F019300F0C38064D85D2855D8A7
S315080141B04C2807D82D2847D823282BD8019805B08D
S315080141C05DF804FB4D381028F8D801A353F820F000
S315080141D027430108BD410108BD410108BD41010848
S315080141E0D9420108BD410108BD410108AD43010895
S315080141F0F74201089D420108A3430108BD41010890
S31508014200BD410108BD410108BD410108BD41010883
S31508014210B743010824380928D0D801A353F820F058
S3150801422027430108274301082743010827430108B3
S3150801423027430108BD4101081D430108BD41010885
S31508014240B94201085D4301083D2800F082803E28F5
S31508014250B4D1002001A9FFF7D9FDAFE78028ADD178
S315080142605A4B1B6F03F00703013B032BA6D8DFE864
S3150801427003F05350878FB0F5F06F6AD021D8B0F5A7
S31508014280B06F4BD00FD8B0F5607F00F0858095D31D
S31508014290B0F5806F47D0B0F5A06F8FD1002001A986
S315080142A0FFF7A8FC8AE7B0F5D06F57D0B0F5E06FF5
S315080142B0CFD0B0F5C06F81D1002001A9FFF7CAFCA4
S315080142C07CE7B0F5206F71D00BD8B0F5086F4AD0EE
S315080142D0B0F5106F7FF472AF002001A9FFF76CFDEE
S315080142E06CE7B0F5406F5CD0B0F5486F63D0B0F5B8
S315080142F0286F7FF463AF0021344B0391D3F87032F2
S3150801430003F00303012B5BD0022B14BF0B461523C5
S3150801431000E00523019351E70223FBE7002001A9E9
S31508014320FFF740FC4AE7002001A9FFF7D7FB45E75D
S3150801433002934FF0E0231B695B0705D5FEF7BAFE2A
S315080143400D230393039BE5E703A902A8FFF782FC64
S31508014350F8E7002001A9FFF77DFD2FE7002001A955
S31508014360FFF700FD2AE7194BD3F8003103F00303E1
S31508014370022B07D0032B09D0012B0BD1FEF7B0FE78
S315080143800323C7E7FEF708FF0923C3E71DF0B5F9BD
S315080143900823BFE70123BDE7184601A9FFF77AFB02
S315080143A00CE7002001A9FFF7CBFB07E7002001A9CD
S315080143B0FFF774FC02E7002001A9FFF7A1FCFDE65F
S315080143C003A8FFF747FC1123A4E700BF00800050AC
S315080143D04FF48012034B5A664FF48032024B9A62AD
S315080143E0704700BF009000500050005A08B5FFF70B
S315080143F0D5FE092811D00A38012811D84FF48002B0
S31508014400094B4FF6FF705A6603F5D8335B6A13F00A
S31508014410010F18BF4FF4FA7008BD044B1888FBE763
S315080144204FF6FF70F8E700BF00900050E20C00203D
S3150801443038B504468020FFF7B1FE032800F08380D3
S315080144404FF48012504B4FF0A0615A6645F60E03A1
S315080144504E4AC2F880304E4B99624FF4803103F5CB
S3150801446080539962916D11F48031FBD1D4E900032F
S315080144701B0543EA0063E07B0343207B43EA0043D1
S31508014480607B43EA0033A07B43EA8013136190699A
S31508014490D4E904531B0643EA856300F0004003434D
S315080144A0A07EE57E0343207E43EA0043607E43EA1D
S315080144B000239361E069136A00280CBF00220822D1
S315080144C023F00F0343EA000343EA850343EA0203A1
S315080144D02E4A304D136237D194F82430916A94F8F4
S315080144E02000DB000D4043EA401394F821102B43CA
S315080144F043EA011343F480339362274B916D33EA00
S315080145000101FBD14FF08071214881621369A568C9
S3150801451023F4700343EA055313614FF000438361A3
S3150801452094F822300BB91D4B996294F823301BB9C4
S315080145304FF48032194B9A6294F825301BB1134B0C
S31508014540174AC3F8802038BD022808D111611548D9
S3150801455091614FF408524FF47F411DF06DF90B49F3
S3150801456094F822308A6A94F820001B06154043EA1B
S31508014570401394F824202B4343EAC20394F82320DA
S3150801458043EA02438B62D7E7009000500040005A85
S315080145900050005AC7FFFEFE030001000060005AE2
S315080145A0F1A7FFFF3440005A37B5194CA26AA36D2B
S315080145B013F4803F18BF4FF48031164B18BF996228
S315080145C04FF080719962144BA56993F9003025F46F
S315080145D07F050344000280B225F47F4583F308036F
S315080145E0284340EA0340A0610C4801921DF024F9D2
S315080145F0A36D019A13F4803F07D04FF48031074821
S3150801460003B0BDE830401DF017B903B030BD00BF97
S315080146100040005A0050005A000D00202840005A58
S31508014620014B93F900007047000D0020F0B5D0E961
S3150801463001434FF400061A4A4178057856664FF445
S31508014640D156022702F5B8325662164E4F297760BF
S315080146504FF0010728BF4F2106F580567760166986
S31508014660F603FCD441EA052151611B01417B43EA6A
S3150801467004230B43017B43EA41039360C37B817B9C
S315080146801B0143EA4113417C0B43017C43EA410385
S315080146905360837C13B16FF4D1535362F0BD00BFED
S315080146A00090005000100250014B1880704700BF5F
S315080146B0E20C00204FF4800208B5184B5A66022313
S315080146C0174A5360936813F48033FBD1012822D12A
S315080146D0FEF706FD134B984215D003F5122303F591
S315080146E0F863984213D0104B00EB8002400AB3FBE3
S315080146F0F0F0520A0A4BDA62012218635A62002262
S31508014700074B5A6008BD45F67A10084AF2E745F69E
S315080147101A00074AEEE75362F1E700BF009000501E
S315080147200040025000F0490264666666D8B8050082
S31508014730BBCF0500B0F5207F10B50C4657D008D879
S31508014740B0F5007F48D003D830B3B0F5C07F23D089
S3150801475010BDB0F5607FFBD129492A48D1F8FC2064
S3150801476012F080721EBFD1F8FC3023F08073C1F8B5
S31508014770FC30D0F88030611E23F0300444EA01147D
S31508014780C0F88040002AE3D01D4AD2F8FC3043F035
S315080147908073C2F8FC30DBE71DF05FF81DF06BF89B
S315080147A04FF48031184B174A1967136F611E23F4AA
S315080147B0704444EA01341467FEF77CFC0446FFF7AB
S315080147C05DF9C0F1020120461DF04FF800F02EF800
S315080147D0BDE81040FFF7D2BC0A4A0139D2F8903039
S315080147E023F0F85444EA0164C2F89040B0E7054B57
S315080147F0013C196F21F4806141EA84241C67A7E70B
S3150801480000ED00E0008000500090005008B501213D
S31508014810022000F075F81DF020F81DF02CF84FF471
S315080148208032014B1A6708BD0090005008B54FF455
S31508014830C070FFF7A5FBBDE80840044988428CBF54
S31508014840022101214FF42070FFF774BF80F0FA02AC
S31508014850054B420953F8223000F01F0023FA00F0F5
S31508014860C04300F00100704700E100E0024A536BC3
S315080148700342FCD1704700BF00400950044A417801
S31508014880536F23F4407343EA01235367704700BF0C
S31508014890004000500A4A10B51369044643F0040360
S315080148A0136103F091FD1DF010F830BF1DF00EF8ED
S315080148B003F09EFD1CB9BDE81040FEF7FBBB10BD19
S315080148C000ED00E0084A10B51369044643F00403F5
S315080148D0136103F079FD30BF03F08AFD1CB9BDE809
S315080148E01040FEF7E7BB10BD00ED00E0034A017971
S315080148F0D36E23F030030B43D36670470040005054
S31508014900F8B504461C4BD3F88420D106FBD4D3F85A
S315080149108430C3F381139C422CD0FEF7B1FB012CE2
S31508014920064602D121461CF0A0FF1CF0BEFF4FF03F
S315080149300072124B07465A6620461CF0CAFF4FF40E
S3150801494080630D4D621E93402B676B6E9A0103D4EB
S31508014950D5F884309B060AD538461CF0AAFF022CE6
S3150801496008D13046BDE8F84000211CF07EBFD5F8D5
S315080149708430EAE7F8BD00BF0040005000600050EF
S3150801498007B518B90191FEF77BFB0199064B1B7810
S3150801499043B1064B984205D8012003B05DF804EBF4
S315080149A0FFF7AEBF0220F8E7332A0020005A620259
S315080149B00278034B012100201A70FFF7E1BF00BFFF
S315080149C0332A00204FF00042154B10B55A664AF6B5
S315080149D0CD3314494C6C0B6404F0010488B90120E9
S315080149E0FFF744FF4B68DB0704D50F4B58600B6B89
S315080149F0D807FCD514B10B4B0C4A1A6427F03DFABB
S31508014A0010BD0B6B1A07FCD42022074B9A620122B0
S31508014A10A3F580535A60034A936A9B06FCD5E9E7D6
S31508014A200090005000400950006009503254FFFFC1
S31508014A304FF0004238B5164B01465A664AF6CD3351
S31508014A40144C154A656C236443780B205B0043F0CC
S31508014A500103D363FFF70AFF63688A7823F4F873BF
S31508014A6043EA02136360CA784B7943EA0223A360D7
S31508014A700A798B7943EA022323610878FFF7A2FFB3
S31508014A80EB0744BF054B236427F0F7F9012038BD2E
S31508014A900090005000400950004000503254FFFF7A
S31508014AA04FF00042124B70B55D6E03F580535A669E
S31508014AB04AF6CD3304460F4980204E6C0B64FFF746
S31508014AC0D5FE0B6A23F00F030F2C94BF234343F043
S31508014AD00F030B62F30744BF074B0B64002DA2BFFC
S31508014AE04FF00042054B5A6627F0C7F970BD00BF63
S31508014AF000800050004009503254FFFF00A00050CA
S31508014B004FF00042104B70B55D6E03F580535A663F
S31508014B104AF6CD3304460D4980204E6C0B64FFF7E7
S31508014B20A5FE0B6A23F4F85343EA04230B62F30741
S31508014B3044BF074B0B64002DA2BF4FF00042054B43
S31508014B405A6627F09AF970BD008000500040095056
S31508014B503254FFFF00A0005010B51CF0BFFE04231D
S31508014B6000F5805100F500520B6113610B61136169
S31508014B700B6113610B611361202341F20201036189
S31508014B800023C360836041614FF4A021836183657B
S31508014B9041620549C36103628362C3624363036574
S31508014BA0D164036310BD00BFFF3F0D03F8B5054689
S31508014BB01446084641B9344B9D422FD0334B9D428A
S31508014BC008BF5720FFF7DCF9AB68DE072ED5B0FB27
S31508014BD0F4F46E68013C16F0010625D02821284612
S31508014BE01CF078FEAB6C99071AD1AB6CDA0719D4AD
S31508014BF0AB6C13F0020F0CBF0027062728461CF0E2
S31508014C006DFE286920F07F4040EA04642C61DEB11C
S31508014C1039462846BDE8F8401CF097BE5620D1E72C
S31508014C200527EBE70927E9E73746EAE76B68AB6D3E
S31508014C30AF68DB0707F0E00748BF6400402F1BD0C9
S31508014C4003D8DFB1202F1BD0F8BD602F1AD0802FD3
S31508014C50FAD1012604FB06F34101B1FBF3F30C4A31
S31508014C60203B02EAC302284601211CF033FE2A63CF
S31508014C70BDE8F8401CF02EBE0626EBE71026E9E74C
S31508014C800826E7E70426E5E70000015B00000A506D
S31508014C90F8FF7F00F8B51E46436804460D461746D9
S31508014CA01BB140F6FF711CF015FE2046FFF754FFB5
S31508014CB0E9896B7B62690B43298A22F44C520B43BF
S31508014CC022F00F0213436361A2682B7E297B22F02F
S31508014CD0804222F0E202194311436A691143AA6824
S31508014CE0A1601AB9A26842F00042A260E8690028E8
S31508014CF060D0A268017A42EA8152A260A268817AEA
S31508014D0042EA4142A2608288A16802F4C0420A438B
S31508014D10A260A268417842EA8102A260A268417B48
S31508014D2042EAC102A260A268817B42EA0112A2603C
S31508014D30A268817842EA8122A260C2798179520207
S31508014D4042EA8122E260027802F0FD01012908BFE8
S31508014D50E168A2F1020204BF41F00401E160012AFF
S31508014D605E495F4A76D88C4272D05E498C420CBF46
S31508014D7001214FF0FF3102EB411241F294414FF00C
S31508014D80020C42F801C0427A04F580518A621AB1CE
S31508014D90E26842F40062E260C27A5AB1E26842F419
S31508014DA00042E2604D4A944263D1027B4E4902F0C9
S31508014DB00F024A6747B197F8202004F5805C002A5C
S31508014DC061D00122CCF820207EB304F5805013B1BE
S31508014DD04FF40043836596F82120404B102A434936
S31508014DE061D89C425DD03F4B9C420CBF01234FF0DA
S31508014DF0FF330127CF54768C3849B6F5006F3C4B03
S31508014E005FD88C425BD037498C420CBF01214FF0E9
S31508014E10FF3101275F54A36D324323F4F95323F07D
S31508014E201E031343A36501238365052120461CF050
S31508014E306FFDAA6812B16968FFF7B8FE204629789E
S31508014E401CF083FDA36CDB4313F4405FFAD1F8BD74
S31508014E50002190E78C420AD022498C420CBF0121DD
S31508014E604FF0FF3102EB411242F2944187E70021EC
S31508014E70F8E71C4A944201BF027B1B4902F00F0264
S31508014E80C1F8802096E797F82210E06997F8212063
S31508014E900A4320F009010A4342F00102CCF81C201A
S31508014EA092E70023A5E79C4207D00E4B9C420CBF14
S31508014EB001234FF0FF3302279CE70023FBE700217C
S31508014EC0A7E78C4207D007498C420CBF01214FF056
S31508014ED0FF3102279EE70021FBE700BF0000015BC7
S31508014EE000C0035000000A5000900350362A0020E3
S31508014EF0342A0020436870B504460D460E691BB175
S31508014F0040F6FF711CF0E6FC2046FFF725FE2269F4
S31508014F106B7BA97B22F087020B43134343F0800383
S31508014F20236116B32A692369117823F0F8030B4321
S31508014F30117F43EAC113117943EA4113517A43EACE
S31508014F400113D17B43EA81132361E168D2E9053074
S31508014F5021F0F04121F4702103430B43117B527B6D
S31508014F6043EA812343EAC233E360A368EA7B23F079
S31508014F700303134343F00103A3602EB32A69A1680F
S31508014F80538803F4C0430B43A3605179A36843EAEA
S31508014F908123A3609379D079616A1B01000203F02A
S31508014FA0700300F4E06021F4772121F4EE610343F4
S31508014FB00B43117A527F090301F4E04112040B43B2
S31508014FC002F470221343636263692A7B23F00F0399
S31508014FD013436361B6B12B695A89A2615A7B3AB107
S31508014FE01D4A944224D19A7B1C4902F00F024A6752
S31508014FF0DA7B3AB1184A944224D11B7C174A03F04A
S315080150000F031367D5E901122046FFF7CFFD0521E6
S3150801501020461CF07DFC28211CF05CFC2B78A36340
S315080150201CF058FCA36CDB4313F4405FFAD170BD46
S315080150300B4A944201BF9A7B084902F00F02C1F854
S315080150408020D5E7064A944201BF1B7CA2F5CE22F1
S3150801505003F00F03D367D5E70000015B0090035007
S3150801506000000A50072AF7B501F0030614461F4641
S315080150704FF003012CD89500A94000FA05F21C4807
S3150801508001911CF07CFC01991A4806FA05F21CF0FC
S3150801509076FC194B19499DF82000002F08BF1946BF
S315080150A0012303FA04F40C60154B1649002808BFBE
S315080150B00B461C60144B9DF82400C3F8204410319C
S315080150C0A3F6DC33002808BF0B461C6003B0F0BD0D
S315080150D0A2F10805AD00A94000FA05F20B480191B5
S315080150E01CF04DFC01990A4806FA05F2CFE700BF04
S315080150F000C4035008C4035010E4035010D40350ED
S3150801510014D4035014E4035000E0035004C40350BC
S315080151100CC403502DE9F04105460F461E4690463C
S315080151204AB101233022194C8B4002FB00443EB39D
S3150801513004F5825423600F21072F05EB450388BF29
S31508015140A7F108044FEA0313114895BFBC00A40050
S3150801515004330C3308FA04F2A14018441CF00FFC7E
S31508015160B8F1000F0AD101213020084A01FA07F7E0
S3150801517000FB05223EB102F582521760BDE8F081B7
S3150801518004F50154D6E702F50152F6E700C00350CB
S3150801519030C003504FF400120B4B10B5C3F88020F2
S315080151A0BFF34F8FBFF36F8F0024FF22074B2146B2
S315080151B05C6520209A625C60FEF7C6FE2146BDE862
S315080151C010402120FEF7C0BE00E100E000000450B7
S315080151D0044A054B002918BF1346012202FA00F0BA
S315080151E018607047402004504010045010B5012142
S315080151F004462020FEF7A8FE01212120FEF7A4FE81
S315080152000122114B5A60227812069A606178A278B7
S3150801521042EA01429A61FF229A6200229A631A645B
S315080152204FF000425A654FF0FF324FF4001103F573
S3150801523000531A65054AC2F88011E3781B01DBB2EF
S3150801524082F81533116010BD0000045000E100E03A
S315080152502DE9F0410125C3B2D1F8008091F80AC0C1
S315080152600F7B91F80DE09D400C46CB7A1C491D4EEB
S315080152700D65810001F1A04101F58821C1F804807D
S31508015280302101FB00601B0543EA0C4343EA4753FF
S3150801529022F00302C0F860E0C36502671CF00CFB4C
S315080152A0736D2B437365237A13B1336C2B433364C4
S315080152B0637A13B1B36B2B43B3632279A37943EAB8
S315080152C00243074A93616179E37943EA014306494F
S315080152D08B61044B55639D64BDE8F0411CF0F2BA3D
S315080152E000200450000004500010045010B5012499
S315080152F0C0B284401CF0E0FA044B5A6D22EA04025B
S315080153005A659C62BDE810401CF0DCBA00000450E6
S3150801531010B50124C0B284401CF0CEFA074BDA6AF4
S31508015320224209D15B6B34EA03030CBF0124002432
S315080153301CF0C8FA204610BD0024F9E70000045005
S315080153404FF48032054B9A6641F6713203F51C33E8
S31508015350DA63012203F50053DA60704700900050C2
S3150801536041F671320121064BDA6303F50052D16029
S315080153700022DA634FF48032A3F518339A66704730
S31508015380000003504FF48032064B5A6603F5E623B4
S315080153909B69C3F38512827003F03F021B0B4270AF
S315080153A0037070470090005040F6B732064B5B68B1
S315080153B09BB293429FBF4FF47A72B3FBF2F3034A4F
S315080153C0D05C88BF002070470080E00FD8D1030861
S315080153D0054B9A689107FCD45A689207F9D4DA6999
S315080153E0002AF6D1704700BF00800A5008B5FFF7BA
S315080153F0EFFF0122024B03F580514A601A6108BD8D
S3150801540000800A50074B5A68012A0AD15A68D207FE
S3150801541002D5DA69002AF9D102221A610122024B60
S315080154205A60704700800A5000A00A5010B5064C11
S31508015430FFF7CEFF6368012B03D1FFF7E3FFFFF701
S31508015440C7FF0378E36010BD00800A50E8B94A68CF
S315080154500B7812B1127843EAC2034A78002A14BFBC
S315080154600222002213438A6812B1127843EA821390
S315080154708A78002A14BF042200221343CA6812B18B
S31508015480127843EA4223014A9364704700800A501E
S3150801549008B9014B5964704700900A5008B9014B85
S315080154A05964704700A00A5008B9014B196470473E
S315080154B000A00A5010B9024B186C704700207047BB
S315080154C000800A5048B911B1012903D07047044B2D
S315080154D0D86C7047024B186D70470020704700BFA3
S315080154E000800A5040B911B1012903D07047034B16
S315080154F0DA647047014B1A65704700BF00800A508D
S3150801550038B50446054D26F0DEFC0FCC0FC594E8E8
S31508015510030085E80300002038BD00BFE41C002015
S3150801552047F6FF739A42F0B567D0012967D8354D1A
S31508015530CF0015F8313005EBC100012B847813D162
S315080155400025C3781B1B9D4202D3E018C0B2F0BDEB
S31508015550591B4668A3EB510136F911609642D4BF2F
S315080155600D4601F1FF33EEE740680028EFD0B0F9A8
S315080155700030934204DBB0F902309342B8BF1346B8
S3150801558082883D44FF2A19BFC8214FF0280CB0F97B
S315080155900610B0F908C0A1EB03020CBF01260026CC
S315080155A092FBFCF26D78324412B2954201DD002A73
S315080155B001DA6A1E12B24FF47A7700EBC206F18855
S315080155C0B668013213FB016112B221EAE17101F5F4
S315080155D0FA719542B1FBF7F104DD00EBC206B68814
S315080155E08E42EAD200EBC20232F8040C884228BF86
S315080155F00846A04238BF2046A8E7FF20A7E70020B3
S31508015600A5E700BFE41C00200129F0B553D82B48B3
S3150801561000EBC10410F83110636801290FD1E07855
S31508015620A478904294BFC4EB0001C4EB0201001BAD
S31508015630CAB28242C8BF002233F91200F0BD002B5C
S3150801564039D0A178914202D3B3F90200F6E7E1789D
S31508015650B3F900009142F1D999886478A1F1FF065E
S31508015660013C714203F10405E4B2714103F10C07EF
S315080156701FFA82FCCEB2B44216D805EBC1014FF42B
S315080156807A756A43B1F902404968521A04EBD47132
S3150801569002EB610292FBF4F29042CFDBB3F902000E
S315080156A09042CBDC10B2C9E737F831E04E1CE6452B
S315080156B0E3D33146DEE70248C0E700BFE41C002019
S315080156C00080FFFF0148FFF71BBF00BFDCD10308BD
S315080156D000487047E40C00207FB50222084B0949AF
S315080156E0CDE901234FF00073CDE90313072301A97F
S315080156F04FF0FF30059326F01EFC07B05DF804FB5A
S31508015700006A18000002060008B5B0B14FF48062BD
S315080157100B4B9A661CF061F94FF098435A6CD2020A
S31508015720FCD54FF48062586D064B10F470209A66CA
S3150801573004D0BDE808401CF070B9212008BD00BF9F
S315080157400090005000A000502DE9F0418CB0884629
S31508015750DDE912761D460446002847D0002945D0C2
S31508015760002F43D0002E41D013F00F033ED120481D
S315080157702049A360002A18BF0146E361C4E9001362
S31508015780404609A91CF03DFA68BB204609991CF058
S315080157901BF9294620461CF017F96946404600F0D0
S315080157A0E7FA00BB694620461CF0FAF8404603A909
S315080157B01CF0F5FAB8B9204603A91CF0F1F80697CA
S315080157C00127204645F0005506A9079708951CF0BC
S315080157D0E7F8204609A909960A970B951CF0EAF8F5
S315080157E02046FFF791FF0CB0BDE8F0812120FAE7CA
S315080157F000010104000100042DE9F0438DB088463B
S3150801580015461C460746DDF85090002850D0002959
S315080158104ED0002A4CD0B9F1000F49D00B68103B85
S31508015820102B45D8012606FA03F303F0013323F0BA
S315080158308073002B3CD000231E4A8360C0E90023F5
S31508015840C36109A940461CF0DCF970BB38460999C1
S315080158501CF0BAF8214638461CF0B6F869464046A7
S3150801586000F086FA08BB694638461CF099F84046A6
S3150801587003A91CF094FAC0B9384603A91CF090F89C
S3150801588044F00054384606A90695079608941CF074
S3150801589087F8094B384609A9CDF824900A960B933F
S315080158A01CF088F83846FFF72FFF0DB0BDE8F083E6
S315080158B02120FAE70000040410000020F0B50C4688
S315080158C017461E46054695B0002874D0002972D0A1
S315080158D0002A70D0002B6ED0036B0F2B5BD80023E8
S315080158E0364A3846C4E90023A360E36111A91CF0CE
S315080158F088F900285BD1204611991CF065F8296BB7
S3150801590020460F2984BF01F00F0110311CF05CF805
S31508015910384602A900F02CFA002848D1204602A9E7
S315080159201CF03EF8384605A91CF039FA00283ED184
S31508015930204605A91CF034F80122214B0895099245
S315080159400A932B6B05F1100003F00F0141F000518A
S315080159500B900F2B0C920D910E900F9243F0005263
S31508015960109226D90A9B08A923F0005320460A93C8
S315080159701CF016F80BA920461CF012F80123119603
S3150801598012930F4B204611A913931CF013F82046C6
S31508015990FFF7BAFE0BE000F1200301900093012204
S315080159A0102339462046FFF7CFFE002897D015B0B9
S315080159B0F0BD0EA9DFE72120F9E700BF00000404C6
S315080159C0100000202DE9F04F9BB00D4691469846F0
S315080159D00646DDF890A0002800F0B380002900F003
S315080159E0B080002A00F0AD80002B00F0AA80026B7F
S315080159F002EB0A031B09B3EB121F02F00F0700F0B3
S31508015A0098800023504A8B60C1E90023CB61484640
S31508015A1017A91CF0F6F80446002840F0868007EB23
S31508015A200A0323F00F0B2846179900931BF0CCFFA6
S31508015A30594628461BF0C8FF484602A900F098F9BE
S31508015A400446002871D1284602A91BF0A9FF484639
S31508015A5005A91CF0A4F90446002866D14FF00109EE
S31508015A60284605A91BF09CFF384A284608A9089626
S31508015A70CDF824900A921BF093FF47F00051ABEB47
S31508015A80070706F1100347F000570B93CDF830903E
S31508015A900D91CDF83880CDF83C9010970D99284690
S31508015AA021F000510D910BA901931BF079FF2846AE
S31508015AB00EA91BF075FFABF11001244A41F0005104
S31508015AC01194CDF84890139106F120011491CDF85F
S31508015AD0549016921399284641F0804113911399CF
S31508015AE021F00051139111A91BF064FF284614A94E
S31508015AF01BF060FF154A17A928461796CDF860903E
S31508015B0019921BF057FF2846FFF7FEFD009B044636
S31508015B10ABEB0301A3EB0B02019B5144184641442D
S31508015B2026F0AAFD336B5344336320461BB0BDE808
S31508015B30F08F103052464146384426F09DFD002428
S31508015B40F0E72124F1E700BF03020004100000205A
S31508015B502DE9FF4700230E46174604460093002801
S31508015B605BD00AB1002958D037F0030807F0030AB9
S31508015B7025D04FF000094FF0E063C4E9003901234D
S31508015B8001962046029301A948F00053C4F80890EB
S31508015B90C4F81C9003931BF00DFF414620461BF0E9
S31508015BA013FF2046FFF7B0FD054640B14246494678
S31508015BB0304626F088FD284604B0BDE8F0874FF048
S31508015BC00009BAF1000F2AD04FF0E063C4E90039A1
S31508015BD00123CDF804D00293124B204601A9C4F83B
S31508015BE00890C4F81C9003931BF0E4FE0421204698
S31508015BF01BF0EAFE2046FFF787FD054608B13A463F
S31508015C00D5E7034600994644DA00013321FA02F240
S31508015C109A4506F8012BF7D1CDE72125CBE755465D
S31508015C20C9E700BF04000020F0B50F4616461D4619
S31508015C30044693B010B9212013B0F0BD0029FAD05B
S31508015C40002AF8D0002BF6D0002331461A463846EA
S31508015C501BF08CFF0028EFD1304602A91BF01CFF70
S31508015C600028E9D1EB68022B0AD039683F48029A25
S31508015C7081426B6902D01830814270D19A42DAD8D2
S31508015C802B68002BD7D14FF060623846C4E9002350
S31508015C90A360E36101A91BF0B4FF0028CCD10199E7
S31508015CA0204621F4F06101911BF08EFE69462846D3
S31508015CB01BF0A7FF0028BFD1204600991BF084FEE0
S31508015CC0384609A900F054F80028B5D1204609A993
S31508015CD01BF066FE38460CA91CF061F80028ABD10A
S31508015CE020460CA91BF05CFEEB684BB1284606A9B9
S31508015CF000F03EF800289FD1204606A91BF050FE69
S31508015D00304603A91CF04BF8002895D1B368DA048C
S31508015D100CD59B0427D50621F36932691B6801FB5B
S31508015D2003225B0043F0005303920593204603A91F
S31508015D301BF036FE28460FA91CF031F800287FF41F
S31508015D407BAF20460FA91BF035FE03252046FFF73A
S31508015D50DBFC01287FF470AF013DF7D16CE7B3EBAB
S31508015D60420F8DD267E7292066E700BF200000B001
S31508015D70A0B199B101234B60C368013B012B0AD835
S31508015D808069074B18B1086000208B607047054A87
S31508015D900A608B6070474FF00053F5E72120704782
S31508015DA00800002074E3030870B50E46154604463C
S31508015DB08AB000285BD0002959D0002A57D0012380
S31508015DC029461A4630461BF0D1FE00284DD1B36844
S31508015DD013F4C04F4BD0AB6803F4C043B3F5005F6F
S31508015DE045D1254BA060C4E90030E06107A93046DA
S31508015DF01BF007FF002838D1204607991BF0E4FD60
S31508015E00304601A9FFF7B4FF78BB20461BF0C8FD51
S31508015E10304604A91BF0C3FF38BB204604A91BF072
S31508015E20BFFDEB681BBBAB6803F4C043B3F5005F6A
S31508015E301DD1694628461BF060FEB0B9009B6A6908
S31508015E409A4216D32A6943F0005307920122204643
S31508015E5007A90892032509931BF0ACFD2046FFF715
S31508015E6053FC012801D1013DF8D10AB070BD2120AA
S31508015E70FBE71D20F9E700BF0000010205289ABFCC
S31508015E80014B185C002070477CE3030830B5154BBD
S31508015E9087B00293144B0390049346F611030D46FB
S31508015EA0059300F06DF91428044616D168461CF0CE
S31508015EB047F94FF0A843032202A95A6319601D61E5
S31508015EC09A63DA6B9207FCD1142C02D168461CF04E
S31508015ED045F900F089F9044601E00028E9D0204691
S31508015EE007B030BDFC1C0020040000202DE9F04F4E
S31508015EF0B1B005468C46E9466E4F3B9EDDF8F8E0A3
S31508015F00409C07F1100AC846386879680837A8E836
S31508015F1003005745C146F6D10EEB0208C8F1000940
S31508015F2009F00F09002E00F0AF80774207F00F073E
S31508015F300121DDF8FCB0C4F1100ACDF810B00591C5
S31508015F4044F0005106914FEA0A2101F4F85141F053
S31508015F502101079106B96B460893002D40F09680FA
S31508015F60002C00F0938004AB0993002E00F090807A
S31508015F7046F000530A93002D40F08D80002C14BF83
S31508015F800123212343EA07230B9308A942F000536F
S31508015F90CDF830C03D980D910E934FEA092343F091
S31508015FA041030F93109002B10CA9002A16BF0022D3
S31508015FB04FF00052412342EA0E02119112921393B5
S31508015FC03C9B3D4A149310AB15933C4B0021169309
S31508015FD040F6110317933A4B002D08BF1346189341
S31508015FE014AB1993374B10221A9311231B931CAB2D
S31508015FF0184626F068FB01221D924AF080421E923D
S3150801600000220346239205B9EB46102C08BF01234B
S315080160100DF1900A102200215046CDF880B0219347
S31508016020229426F050FB002C37D020AB0021259373
S315080160308F4218BF534647F0804226923A9A2CA8B7
S315080160408A422892299313460CBF4FF080430B4688
S31508016050102233432B912A9326F035FBFEB953467A
S31508016060C8442D932CA948F0804318A82E93FFF70E
S315080160700DFF30B92DB90346A34212D1002818BF26
S315080160802C2031B0BDE8F08F102751E701236BE7CB
S3150801609047F000536EE7212374E70123C6E728ABCF
S315080160A0DEE703F1C0026A4412F8C02C013310433B
S315080160B0E2E700BF82E3030894E303081000002027
S315080160C098E3030804000020F0B5C0299FB0249E78
S315080160D04FD0B1F5807F04D0802941D029201FB047
S315080160E0F0BD40F2344440F21445002E08BF2C4658
S315080160F021271025019401240296039404950597F6
S31508016100259F069706B102AC0794012408950994C0
S315080161100A9221220B940C950D92174A0AAC0E92FB
S31508016120164A0F94109242F6110211921293139481
S315080161301495159201AA1692CBB112AB17930423A3
S3150801614018931123199316AB1A901B9340F6110352
S31508016150C9081C911AA806A91D93FFF797FEBEE761
S31508016160002E14BF4FF486644FF48264C0E70EAB69
S31508016170E4E70F20B3E700BF9CE303081000001013
S3150801618038B5164B5A6E42F004025A66D3F8802285
S3150801619042F00102C3F88022114B5B68C3F308037E
S315080161A043B14FF0A842D36B13F0430FFBD114242C
S315080161B0204638BD4FF0A843DC6B14F04304FBD1ED
S315080161C0084D2B681BB90421284602F0E9FF2B6804
S315080161D0013343F000432B60EAE700BF008000501B
S315080161E000ED00E0FC1C0020014B00205B687047B5
S315080161F000ED00E0012300F01F02A0F50620094981
S31508016200A0F550604009934051F820201A4341F8FF
S315080162102020054951F8202022EA030341F82030BD
S31508016220704700BF001D0020141D00200121A0F5A4
S3150801623006230F4AA3F550635B0900F01F0001FA14
S3150801624000F052F8231008430A4942F82300D1E91D
S315080162500030034488680344C868096903445B1825
S3150801626002BFC2E90033C2E902331361704700BFB6
S31508016270141D0020001D00202DE9F04FA9B002923F
S315080162801F46DDE9328904460822CDE9030141406A
S3150801629021FA02F34B40980702F1080218BF9B0046
S315080162A0202A1C44F4D18123B4FBF3F303EBC31373
S315080162B0E41A784B04F506241B7804F55064002B80
S315080162C03CD1FDF761FB014620B16FF0910029B081
S315080162D0BDE8F08F4022059008A826F0F4F940227F
S315080162E0059918A826F0EFF96B4EDFF8C4A13346D5
S315080162F003F10F0B102208A9DAF80000CDF800B057
S31508016300059325F0A0FB00220146059B103608AD32
S31508016310914244D1CDF800B01022DAF8000018A94C
S3150801632025F09AFB4FF0000B034618AD5B4542D1A9
S315080163305A4B9E42DBD10122564B1A708125002603
S31508016340DFF86CA1A4F50623554AA3F550635B094A
S3150801635052F8232004F01F01CA40D2073ED4514AFD
S3150801636052F82300C84010F001002DD0002E08BFB6
S3150801637026468123A4F50724A4F2FF44B4FBF3F3CC
S3150801638003EBC313E41A04F50624013D04F550642E
S31508016390D8D1029BD3B1CEB1349B1E6063E055F8C8
S315080163A0040BCDE906230591FFF724FF069A079BFF
S315080163B005990132ACE755F8040B05930BF1010B6E
S315080163C0FFF734FF059BB1E7029B13B96FF08B000A
S315080163D07DE7349B002E45D01E6078E7B8F1000FA3
S315080163E002D00023C8F80030B9F1000F02D000230B
S315080163F0C9F800304FF0100B00233A462146DAF867
S315080164000000CDF800B012F003FE70BBB8F1000F22
S3150801641001D0C8F800B03B68234A93422FD1B8F19E
S31508016420000F11D0B9F1000F0ED04B462146DAF80C
S31508016430000018AA12F040FEB8B9D9F80030D8F809
S3150801644000209B1AC9F80030D7E90223DDE90310B9
S31508016450834208BF8A428CD1029B13B17B68012B08
S3150801646015D0349B1C60002031E7104B984206D0AA
S315080164701233984203D0133B9842E5D025E72146CB
S31508016480DAF8000012F05EFE0028DDD09EE76FF014
S3150801649084001CE7382A0020006D080000710800F6
S315080164A0001D0020141D0020105D175EFFDF00F09F
S315080164B0E00A00202DE9F04F87B0824689469846C2
S315080164C01646DDF840B02AB1002B4ED040F26C7367
S315080164D09A424DD8BBF1010F4DD8002406F1100799
S315080164E03946012005941CF0F8FC0546002845D0DC
S315080164F021463A4626F0E7F805ABCDE90143009473
S315080165002B46012250464946FFF7B6FE044680B19E
S3150801651010F18C0F08BF6FF08D043A46002128460A
S3150801652026F0D1F828461CF0E9FC204607B0BDE85C
S31508016530F08F144BC5E902A92B60C5F804B02EB13A
S315080165403246414605F1100026F096F80E483B46BC
S315080165502A460599006812F0C3FC18B90598FFF791
S3150801656049FEDAE76FF09104D7E76FF08604DCE7B6
S315080165706FF09104D9E76FF08504D6E76FF08C04C4
S31508016580D3E700BF105D175EE00A00202DE9F0434E
S315080165908DB08146DDE914780C4615461E469BB139
S315080165A0B8F1000F05D16FF0860420460DB0BDE89D
S315080165B0F083002FF7D0B7F1005FF4D3C3F100538E
S315080165C003F580239F42EED81022002108A826F061
S315080165D07AF8002207AB029305AB019306AB214675
S315080165E00093484608ABCDE90522FFF745FE044668
S315080165F00028DAD10599DEB1A94203D80029D2D1FA
S3150801660015B1D0E70029FBD0491BB14228BF314655
S31508016610069B0948C8F8001000913A460799006890
S315080166202B4412F0F5FC002818BF6FF09104BCE763
S31508016630A942E9D2B7E700BFE00A002030B58DB01C
S315080166400C4605461022002108A826F03CF800222F
S3150801665007AB029305AB019306AB21460093284687
S3150801666008ABCDE90522FFF707FE0446D0B9099B19
S31508016670012B1AD0104B0799186812F063FDB8B9A7
S31508016680012207980D49A0F50623A3F550635B0976
S3150801669000F01F05AA4051F823506A4041F823200B
S315080166A0FFF7C4FD20460DB030BD6FF08404F9E74D
S315080166B06FF09104F6E700BFE00A0020001D0020F4
S315080166C0134B98421BD010D8124B984205D020F490
S315080166D08070A3F58063984216D10B88B3F5105FD5
S315080166E00CBF00206FF0850070470B4B9842F4D021
S315080166F08EBF0A4B20F48070A3F50073EBE742F2D4
S3150801670004030A889A42EBE76FF08500704700BFD9
S3150801671000018004004440040012C0040013C004B0
S315080167202DE9F04F93B09346DDE91E759846DDE9EC
S315080167301C2381468A46209E29B96FF08604204685
S3150801674013B0BDE8F08FBBF1000FF6D00FB9002DDD
S31508016750F3D10AB9002BF0D116B9219B002BECD144
S31508016760229B002BE9D049464046FFF7A9FF04467C
S315080167700028E4D10146202202A825F0A4FF202200
S3150801678021460AA825F09FFF02A81BF076F90028E2
S315080167903DD15A46514648460AAB00F063F90446CC
S315080167A00028CCD10A981BF047FD04460028C6D11B
S315080167B015B9229B1860C2E7B74210D27B199E42CF
S315080167C00DD2219B9D42B8D82A463946304625F036
S315080167D060FF174B984518D06FF08504AFE7144B47
S315080167E09845F9D1219B9D42A7D815F00F08A4D148
S315080167F0CDE900762B4642460AA902A8FEF7A4FF70
S31508016800074638B9229B1D6099E73746EDE76FF0D1
S31508016810920494E741463046219A25F054FF229B7B
S31508016820012FC3F80080F2D16FF08B0487E700BF10
S31508016830004440042DE9F047C2B00C460646002143
S31508016840154601A820229A46DDF82891DDF83081FF
S315080168504E9F25F038FF2022002109A825F033FF95
S315080168602022002111A825F02EFF2022002119A897
S3150801687025F029FF0021802222A8219125F023FF56
S31508016880002C5BD0002D59D0B9F1000F56D0B8F1C4
S31508016890000F53D0002F51D02188628801F4E043BC
S315080168A0B3F5804F4AD0314B3148334043F010633A
S315080168B0834205D06FF08504204642B0BDE8F087D3
S315080168C0D31DBAEBD30F4FEAD30637D34D9B9E425E
S315080168D046D847F212139942ECD1B2F5807FE9D135
S315080168E0244B4B98099309F101030D938423023034
S315080168F020F00300169373000E9012932046524619
S3150801690029460DF1840901ABCDF8549000F0AAF897
S3150801691004460028D0D10B9B119043F4005319A8C3
S315080169200B931BF0AAF8F0B911AB09AA01A919A88A
S31508016930FFF77AF9054620B14828BBD06FF08604DF
S31508016940BAE732464946404625F096FE2A4609EBFD
S3150801695005030135852D01D13E60ADE71A70F6E7CD
S315080169606FF08904A8E76FF09204A5E70000FFF627
S315080169700000020920000080F8B5134642880D463A
S315080169800732072A4FEAD20104D0A94202D06FF092
S3150801699086003AE044680688C7682022184600211E
S315080169A025F091FE240A034614B1012C52D1C46084
S315080169B0002DECD041F20102964205D0B6F5885F6A
S315080169C002D0B6F5905F0ED15D60002C45D017F068
S315080169D0020007F0010116D1B9B99A68084642F0D2
S315080169E080729A6011E0B6F5105F07D1182D03D0B1
S315080169F0202D01D0102DCAD11D60E5E706F44F42BE
S31508016A00B2F5824F02D06FF08500F8BDF2B2122AB4
S31508016A10F9D1202DF7D1124A26F0FF06B6F5E24F35
S31508016A201A600DD14FF4804217F4705F9A600DD049
S31508016A3017F4864FE7D19A6842F480629A60C4E7F0
S31508016A40B6F5824FA3D14FF40052EDE79A6822F4C6
S31508016A508062F3E76FF08B00D7E72046D5E700BFE2
S31508016A60200000802DE9F041154600221C464368A6
S31508016A708AB01B0A07460E46019204D0012B59D04B
S31508016A806FF08B0094E0008820F0FF03B3F5824F86
S31508016A904ED17A880732D20801921BF0D9FB002819
S31508016AA000F001810B78042B02D06FF086007FE09D
S31508016AB0013DB5EB420F06F10106F6D122463846ED
S31508016AC00199FFF759FF002872D10335C4E9030676
S31508016AD025F003056561019D002C00F0C880002D95
S31508016AE000F0C5802022002102A825F0ECFD2946E8
S31508016AF0384602AAFFF740FF002840F0B88023680D
S31508016B00029A9A4240F0B3806368039A9A4240F027
S31508016B10AE80A368049A9A4240F0A980A369089AAC
S31508016B209A4240F0A480E369099A9A4240D09EE0CD
S31508016B300195C3E7032DB8D991F80080B8F1010F83
S31508016B4040F0B4804978002979D0F739082997D8CF
S31508016B5001A353F821F000BFEF6B0108B76B0108D9
S31508016B60816A0108D36B0108816A01087D6B0108F6
S31508016B70816A01080B6C0108256C01081C22002199
S31508016B8003A825F0A0FD4B4B4FF4105002930323A5
S31508016B90CDE90403FC2306930AAD02AB1A4603CAE0
S31508016BA0AA4220606160134604F10804F6D1002068
S31508016BB00AB0BDE8F0811C22002103A825F083FD57
S31508016BC03C4B4FF4105202930323CDE90423F823D7
S31508016BD0E1E71C22002103A825F075FD10234FF0DB
S31508016BE0807E02930323CDE904E3FA23D3E71C222B
S31508016BF0002103A825F067FD20234FF000770293B3
S31508016C000323CDE90473F723C5E71C22002103A852
S31508016C1025F059FD274B284D02930323CDE904534B
S31508016C20FE23B8E700211C2203A825F04CFD214BC1
S31508016C30224902930323CDE90413FF23ABE72B2D46
S31508016C407FF633AF2022204625F03DFD7368103DBF
S31508016C502360B3681036636056F8043C2046C4E9DD
S31508016C6002382661656101A91AF016FF28B12022AA
S31508016C700021204625F027FD17E73A88019B02F4F3
S31508016C804F41B1F5824F08D1D1B2122905D122F06F
S31508016C90FF02B2F5824F08BF5B0062691C339A4254
S31508016CA0BFF419AFE3E76FF0850081E76FF0910054
S31508016CB07EE700BF20000080004400020044000374
S31508016CC02DE9F0410D4614461E46C4B010B96FF0C1
S31508016CD086000DE00029FAD0002AF8D0002BF6D05C
S31508016CE0038803F44F42B2F5824F04D06FF0850052
S31508016CF044B0BDE8F081DAB2122AF7D123F0FF03D6
S31508016D00B3F5E24F28D14388336003BBE300336010
S31508016D103368B3F5807FE9D10023404A2819144422
S31508016D201A4614F8016D10F8011D0A43891B0CBF98
S31508016D304FF0FF360026854203EA060343EA0103BC
S31508016D40EFD1002AC3D0002BC1DA0020D0E70733E0
S31508016D50B4EBD30FDCD0BAE7B3F5824F5AD10B782F
S31508016D60042BB4D12022002101A825F0ACFC01A8EE
S31508016D701AF083FE00284AD100278622394622A81E
S31508016D80219725F0A0FC01234FF08A0820223946D5
S31508016D90013C09A88DF88430013525F094FC2022A0
S31508016DA039460E9411A8E4000D95640825F08BFC6C
S31508016DB021AD2022394619A81595CDF8588025F018
S31508016DC082FCB4F5807FCDE91D5834607FF47FAF2E
S31508016DD0134B09AA099311934FF400530B934FF4DC
S31508016DE080431393402311A91A9301A819ABFEF7FF
S31508016DF01BFF33680733DB085A002BB900283FF419
S31508016E0077AF64E705F8017B013AFBD2F6E76FF045
S31508016E1092006DE76FF096006AE700BFA0E30308EA
S31508016E20200000802DE9F04790B0DDF86080064625
S31508016E300C4692461A9FB8F1000F05D16FF08604E9
S31508016E40204610B0BDE8F0870393002FF6D000283E
S31508016E50F4D0202200210DEB020025F034FC08A80D
S31508016E601AF00BFE039B10B16FF09204E8E714F4D5
S31508016E707C1FC4F305452CD0102DDFD8199A9542ED
S31508016E8037D81F4A24F47E14944235D100220DF1D5
S31508016E901009CDE90422CDE9062231465246CDF83C
S31508016EA0009008A8FEF7A8FC0446B0B92A46494648
S31508016EB0404625F0E1FB224609EB04030134112C77
S31508016EC009D100243D6008A81AF0E1FD0028B7D0D1
S31508016ED0CAE71025D2E71A70EEE7212806D001285D
S31508016EE014BF6FF092046FF08B04ECE76FF0860421
S31508016EF0E9E76FF08904A3E76FF08504A0E700BF0F
S31508016F000002C00370B50E461446054610B96FF067
S31508016F10860070BD0029FAD03822002125F0D3FB5E
S31508016F20094B24F47E129A420AD13388B3F5105FCD
S31508016F3006D1C4F30543102BE9D800202C60E8E7F5
S31508016F406FF08500E5E700BF0002C003F0B50F4604
S31508016F5016461D4604468BB070B302B963BB2022A0
S31508016F60002102A825F0AFFB02A81AF086FDA8B9F0
S31508016F702368134A23F47E13934214D14DB1334641
S31508016F803A46009502A9201DFEF71CFD01280DD0E1
S31508016F9078B9002402A81AF07AFD08B16FF09204B4
S31508016FA020460BB0F0BD6FF08804F3E76FF08B0451
S31508016FB0F0E76FF09204EDE76FF08604F0E700BFA3
S31508016FC00002C0032DE9F0418CB0884616460446F6
S31508016FD0129F002841D0002A3FD0002B3DD0002F18
S31508016FE03BD0102B28BF10231D46036813F47C1FC2
S31508016FF0C3F3054202D0954228BF15461A4A23F41F
S315080170007E1393422CD12022002104A825F05BFB94
S31508017010002304A8CDE90033CDE902331AF02DFD8A
S3150801702040B96B46424604A9201DFEF747FC20B12C
S3150801703000233B606FF092000CE004A81AF027FDCC
S3150801704004460028F4D12A466946304625F014FB41
S3150801705020463D600CB0BDE8F0816FF08600F9E787
S315080170606FF08800F6E700BF0002C0030023C36083
S3150801707001F13803036120230A6843618B6D0B49CB
S3150801708022F47E128A42436003D001F580718A4256
S3150801709008D1102B02D1036000207047182BFAD0B3
S315080170A0202BF8D06FF08800704700BF0001C0039D
S315080170B007B5094B18689A889B7900906846ADF818
S315080170C004208DF80630FDF7B3FC0C20FDF7E8FC2B
S315080170D0002003B05DF804FBC0E3030813B50024E0
S315080170E0064A6846536F43F00103536700948DF8C7
S315080170F00440FDF7FBFB204602B010BD00400050DE
S3150801710030B58BB06C46154D0FCD0FC40FCD0FC4DE
S3150801711095E8030084E80300114BD3F84C211203C8
S3150801712014D4D3F85041E4B28DF81940FDF778FA32
S31508017130204480F308008DF818000A48FBF7D6FFAB
S315080171406846FDF775F900200BB030BD064B1C8863
S315080171504FF6FF739C4208BF8C24E5E7C8E3030892
S315080171600080E00FC01753020001E00F30B5094D4A
S3150801717087B001AC0FCD0FC42B6801A823603F234C
S315080171808DF80530FDF752FA6420FDF78DFA0020D7
S3150801719007B030BDF0E303086FF00402502110B5C3
S315080171A00A480B4C12F0800FD3B21BBF03F00F0332
S315080171B0043BA3181B1802F101020CBF83F8001344
S315080171C019764C2AEED1002010BD00BF00ED00E073
S315080171D000E100E038B501F077FA0446E0B901F0BC
S315080171E029FB4FF4167343430C4803F5742303F242
S315080171F03F23B3FBF0F30A4A0A4913600A220D68D2
S315080172000948013A12F0FF0240F8043BF9D103EBB1
S31508017210C3022B4413440B60204638BD40420F007D
S315080172205C1D00202C1D0020301D0020012208B500
S31508017230034B1A701BF0D2FD024B186008BD00BF44
S31508017240392A0020581D0020F8B5144C237823B399
S315080172501BF0C4FD124B134D1B68134EC01A0128AF
S3150801726038BF0120114B124F18602B7856F823208E
S3150801727046F82300111A3A680E48521A0A213A604A
S315080172800932B2FBF1F20133DBB20260B3FBF1F270
S3150801729001FB12332B7000232370F8BD392A002015
S315080172A0581D00203A2A0020301D0020281D0020E4
S315080172B02C1D00205C1D0020014B1868704700BF7B
S315080172C05C1D002020234FF48012094981F82C33D4
S315080172D0084B5A66084B094A03F50050426702678C
S315080172E04FF48050C1F88401486003445A677047D7
S315080172F000E100E0009000500040005A010000A0A3
S31508017300044B9A6DD20702D40028FAD1704701209E
S31508017310704700BF0040005A0C4B10B51C6FE207BE
S3150801732007D5012203F500531A67FFF78DFF00F011
S3150801733091FF14F000521CBF054B1A67002CBEBF03
S315080173404FF00042024B1A6710BD00BF0040005AB9
S315080173500060005A10B504461AF0A7FA024B1C60E1
S315080173601AF0A7FA002010BD601D002010B51AF00A
S315080173709CFA034B1C681AF09CFA204610BD00BF04
S31508017380601D002038B50446026C936C5906FCD57D
S315080173900023E16C1A4694F84800FDF7BBFE00236A
S315080173A0616D1A4694F85000FDF7B4FE94F86830FA
S315080173B0DA0706D50023E16D1A4694F85800FDF759
S315080173C0A9FE94F868309B0706D50023616E1A4614
S315080173D094F86000FDF79EFE0122206C002100F55D
S315080173E000531A6504220A4D1A651AF0AEFA0021ED
S315080173F0606CFCF7A9FD284604F16C011AF08CF9BA
S315080174002B6813B9034800F0F3FD002038BD00BF0F
S31508017410641D0020681D0020012910B505D8064BFA
S315080174201C686C3C14F16C0F00D110BD206C052151
S315080174301AF08BFAE46EF4E7641D00202DE9F04397
S315080174408BB01C4606AB06468946184617460021E8
S315080174501022129D25F037F9227903460AB18DF8D3
S3150801746018204FF00108FB6163793046002B14BFE1
S3150801747043460223CDE903337C4B4A4602937C4BB0
S31508017480294601937B4B8DF81E8000937A4B00F0B9
S31508017490E7FA0646002840F0BB80A36841466B64BC
S315080174A0E3693A206B65237E85F850306369EB649E
S315080174B0237C85F84830636AEB6594F8203085F8B3
S315080174C05830E36A6B6694F8283085F8603023688B
S315080174D02B64FCF739FD434604226169207CFDF7DC
S315080174E019FE43460222E169207EFDF713FE3E702E
S315080174F085F868604146A068FCF726FD6379002B8C
